:10000000A0080010E91B0000491C0000491C00006A
:10001000491C0000491C0000491C000000000000B1
:10002000000000000000000000000000491C00006B
:10003000491C000000000000491C0000491C000091
:10004000491C0000491C0000491C0000491C00001C
:10005000491C0000491C0000491C0000491C00000C
:1000600099140000491C0000491C0000491C0000B4
:10007000491C0000491C0000491C0000491C0000EC
:10008000491C0000491C0000491C0000491C0000DC
:10009000491C0000491C0000491C0000491C0000CC
:1000A000491C0000491C0000491C0000491C0000BC
:1000B000491C0000491C0000491C0000491C0000AC
:1000C000491C0000491C0000491C000080B485B098
:1000D00000AF786039607B681F2B02D97B68203BBA
:1000E00000E07B68FB607B681F2B17D8194B194A0F
:1000F000D2F8A811FA68032000FA02F2D2430A40AB
:10010000C3F8A821134B134AD2F8A811FA6838682B
:1001100000FA02F20A43C3F8A82116E00D4B0D4A7B
:10012000D2F8AC11FA68032000FA02F2D2430A4076
:10013000C3F8AC21074B074AD2F8AC11FA6838680B
:1001400000FA02F20A43C3F8AC211437BD465DF849
:10015000047B704700C00F4080B485B000AF78606A
:100160007B681F2B06D87B68FB600D4BD3F8A8314A
:10017000BB6006E07B68203BFB60094BD3F8AC31E9
:10018000BB60FB68BA6822FA03F303F00303BB60A9
:10019000BB6818461437BD465DF8047B704700BF46
:1001A00000C00F4080B584B000AF7860154B1B686D
:1001B000BB607868FFF7D0FFF860FB68032B17D8A7
:1001C00001A252F823F000BFD9010000DF010000B6
:1001D000E5010000EB0100000423FB6008E00123BF
:1001E000FB6005E00223FB6002E00823FB6000BF28
:1001F000BA68FB68B2FBF3F3BB60BB681846103704
:10020000BD4680BD0000001080B483B000AF7860B0
:100210000B46FB70FB78012B0AD10F4A0E4BD3F82B
:10022000C41078680D4B03400B43C2F8C4300DE096
:10023000FB78002B0AD1084A074BD3F8C4107B681F
:10024000DB431940054B0B40C2F8C4300C37BD46A8
:100250005DF8047B704700BF00C00F40DEF7EFEF92
:1002600080B400AF4E4B2022C3F8A0214C4BD3F8F2
:10027000A03103F02003002B07D000BF484BD3F878
:10028000A03103F04003002BF8D0454B0322C3F804
:100290000421434B0022C3F8A821414B0022C3F89C
:1002A000AC213F4B0122C3F80C213D4B3D4AC3F822
:1002B00084203B4BAA22C3F88C20394B5522C3F82B
:1002C0008C20374B0122C3F88020354BAA22C3F87B
:1002D0008C20334B5522C3F88C2000BF304BD3F811
:1002E000883003F08063002BF8D02D4B0322C3F835
:1002F00080202B4BAA22C3F88C20294B5522C3F80F
:100300008C2000BF264BD3F8883003F04073002BBD
:10031000F8D0234B2322C3F8A420214BAA22C3F8F0
:10032000AC201F4B5522C3F8AC201D4B0122C3F853
:10033000A0201B4BAA22C3F8AC20194B5522C3F8AE
:10034000AC2000BF164BD3F8A83003F48063002B19
:10035000F8D0134B0322C3F8A020114BAA22C3F8F4
:10036000AC200F4B5522C3F8AC2000BF0C4BD3F888
:10037000A83003F44073002BF8D0094B0A4AC3F8A5
:10038000C420074B0022C3F8C821054B43F23A02B0
:100390001A60064B00229A60BD465DF8047B7047E8
:1003A00000C00F4063000500DE87280400ED00E078
:1003B00080B58EB000AF78603960002387F83730A1
:1003C0000023FB600023BB6000237B6201233B62B0
:1003D0000023FB610023BB6100237B61734B3B6106
:1003E0007A68734B9A4204D10620FFF7DBFE38632C
:1003F00019E07A686F4B9A4204D10820FFF7D2FEC9
:10040000386310E07A686C4B9A4204D13020FFF7D1
:10041000C9FE386307E07A68684B9A4203D13220FC
:10042000FFF7C0FE38633B6B1B093B630123FB6294
:1004300056E00023BB6249E0FB6A3A6B02FB03F221
:10044000F96ABB6A0B44B2FBF3F3BB60BA683B6862
:10045000B2FBF3F37B62BB683A68B3FBF2F2396834
:1004600001FB02F29A1A3B685B089A4202D97B6A46
:1004700001337B627B6A022B25D97B6AB3F5803F0F
:1004800021D2BA687B6AB2FBF3F3FB60FA683B687F
:100490009A4204D83A68FB68D31A7B6103E0FA6891
:1004A0003B68D31A7B617A693B699A420BD2FB6A3B
:1004B0003B62BB6AFB617B6ABB617B693B617B69B9
:1004C000002B00D105E0BB6A0133BB62BB6A0F2B76
:1004D000B2D97B69002B00D105E0FB6A0133FB62D6
:1004E000FB6A0F2BA5D93A6813465B001A44344BBC
:1004F000A3FB02135A093B699A4251D97A682D4BE2
:100500009A4223D17B681B7BDBB263F07F03DAB2B4
:100510007B681A73BB691B0ADAB27B681A71BB6904
:10052000DAB27B681A707B681B7BDBB203F07F0357
:10053000DAB27B681A733B6A1B01DAB2FB6903F01B
:100540000F031343DAB27B689A6226E07B681B7B59
:10055000DBB263F07F03DAB27B681A73BB691B0AF4
:10056000DAB27B681A71BB69DAB27B681A707B6891
:100570001B7BDBB203F07F03DAB27B681A733B6A42
:10058000DBB21B01DAB2FB69DBB203F00F03DBB2B3
:100590001343DAB27B6883F82820012387F83730C9
:1005A00097F8373018463837BD4680BDA086010021
:1005B00000C00040000001400080094000C0094028
:1005C0001F85EB5180B584B000AF786039607A68E0
:1005D000A44B9A420FD07A68A34B9A420BD07A6808
:1005E000A24B9A4207D07A68A14B9A4203D0A14805
:1005F000BF2101F02DFB3B685B79002B0FD03B68DE
:100600005B79012B0BD03B685B79022B07D03B68F1
:100610005B79032B03D09748C02101F019FB3B689D
:100620009B79002B07D03B689B79012B03D0914825
:10063000C12101F00DFB3B681B79002B13D03B68F7
:100640001B79012B0FD03B681B79022B0BD03B6829
:100650001B79032B07D03B681B79042B03D08548FB
:10066000C22101F0F5FA7A687E4B9A4203D1082044
:100670000121FFF7C9FD7A687B4B9A4203D1102014
:100680000121FFF7C1FD7A68784B9A4204D14FF0FF
:1006900080700121FFF7B8FD7A68754B9A4204D14A
:1006A0004FF000700121FFF7AFFD7A686E4B9A4260
:1006B00042D17B6807221A727B6800221A7203E01B
:1006C0007B681B78DBB2FB607B681B7DDBB203F0D1
:1006D0000103002BF4D17B68802283F8302000BF17
:1006E0007B681B7DDBB203F02003002BF8D07B6816
:1006F000002283F830207B6800225A607B68002249
:100700001A737B6800221A627B6800221A747B6865
:10071000002283F84C207B68002283F854207B68F9
:10072000002283F850207B681B7EDBB2FB607B6875
:100730001B7DDBB2FB602EE07B6807221A727B68B0
:1007400000221A7203E07B681B78DBB2FB607B68D7
:100750001B7DDBB203F00103002BF4D17B68802208
:1007600083F8302000BF7B681B7DDBB203F02003E1
:10077000002BF8D07B68002283F830207B680022B1
:100780005A607B6800221A737B6800221A627B68B9
:100790001B7DDBB2FB607A68354B9A4203D17B68E4
:1007A000002283F824203B681B6878681946FFF70D
:1007B000FFFD7A682C4B9A4206D17B681B7BDBB22B
:1007C00003F0C003FB6005E07B681B7BDBB203F03A
:1007D000C003FB603B685B79012B04D0022B07D080
:1007E000002B0FD009E0FB6843F00103FB600AE037
:1007F000FB6843F00203FB6005E0FB6843F0030382
:10080000FB6000E000BF3B681B79002B24D0FB6835
:1008100043F00803FB603B681B79013B032B1AD8AC
:1008200001A252F823F000BF570800003908000069
:10083000430800004D080000FB6843F01003FB6014
:100840000AE0FB6843F02003FB6005E0FB6843F02F
:100850003003FB6000E000BF3B689B79012B0BD0AD
:100860000FE000BF00C000400000014000800940D0
:1008700000C009407C320000FB6843F00403FB60C9
:1008800000BF7A68074B9A4204D1FB68DAB27B68F2
:100890001A7303E0FB68DAB27B681A731037BD463F
:1008A00080BD00BF0000014080B582B000AF78601D
:1008B0000B46FB707A68114B9A4210D07A68104B45
:1008C0009A420CD07A680F4B9A4208D07A680E4B45
:1008D0009A4204D00D4840F2CF1101F0B9F97A687C
:1008E000074B9A4203D17B68FA781A7002E07B6862
:1008F000FA781A700837BD4680BD00BF00C00040BE
:10090000000001400080094000C009407C32000026
:1009100080B582B000AF78607A68114B9A4210D0EF
:100920007A68104B9A420CD07A680F4B9A4208D0E2
:100930007A680E4B9A4204D00D4840F2E71101F05C
:1009400087F97A68074B9A4203D17B681B78DBB240
:1009500002E07B681B78DBB218460837BD4680BDD5
:1009600000C00040000001400080094000C0094074
:100970007C32000080B58AB000AFF860B9607A6060
:10098000FB70BB687B617B687B62FB78012B37D196
:1009900000233B6230E04FF0FF33FB6106E0FB6970
:1009A000002B00D109E0FB69013BFB61FB681B7D6B
:1009B000DBB203F02003002BF1D0FB69002B01D147
:1009C00000BF45E01023BB6110E07B695A1C7A61CF
:1009D0001B78F8681946FFF767FFBB69013BBB61ED
:1009E0007B6A013B7B623B6A01333B62BB69002B44
:1009F00002D07B6A002BE8D17B6A002BCBD127E0A9
:100A000000233B6221E0FB681B7DDBB203F0200387
:100A1000002B00D11CE01023BB6110E07B695A1C45
:100A20007A611B78F8681946FFF73EFF7B6A013B45
:100A30007B62BB69013BBB613B6A01333B62BB69C3
:100A4000002B02D07B6A002BE8D17B6A002BDAD125
:100A50003B6A18462837BD4680BD00BF80B584B0CC
:100A600000AF786013460A46FA70BB707A68574B3D
:100A70009A4210D07A68564B9A420CD07A68554BFD
:100A80009A4208D07A68544B9A4204D053484FF4A3
:100A9000287101F0DDF8BB78002B07D0BB78012B63
:100AA00004D04E4840F2A12101F0D2F8FB78062B89
:100AB00027D801A252F823F0D50A0000DB0A000073
:100AC000E10A0000E70A0000ED0A0000F30A000056
:100AD000FB0A00000123FB6013E00223FB6010E02F
:100AE0000423FB600DE00823FB600AE08023FB6029
:100AF00007E04FF48073FB6003E04FF40073FB608A
:100B000000BF7A68324B9A421AD1FB78002B2BD067
:100B1000FB78012B28D0FB78022B25D0FB78052B06
:100B200022D0FB78062B1FD0FB78032B1CD0FB7840
:100B3000042B19D0294840F2BD2101F089F813E0B7
:100B4000FB78002B10D0FB78012B0DD0FB78022B0B
:100B50000AD0FB78052B07D0FB78062B04D01F4862
:100B600040F2C12101F074F8BB78012B11D17A68F1
:100B7000174B9A4206D17B685A68FB681A437B6818
:100B80005A601FE07B685A68FB681A437B685A60AA
:100B900018E07A680E4B9A420AD17B685A68FB6863
:100BA000DB431A4040F28F3313407A68536009E008
:100BB0007B685A68FB68DB431A4040F207331340F6
:100BC0007A6853601037BD4680BD00BF00C000404A
:100BD000000001400080094000C009407C32000054
:100BE00080B582B000AF78607A680E4B9A4210D020
:100BF0007A680D4B9A420CD07A680C4B9A4208D016
:100C00007A680B4B9A4204D00A4840F2063101F050
:100C10001FF87B689A6840F2CF33134018460837B4
:100C2000BD4680BD00C0004000000140008009407A
:100C300000C009407C32000080B584B000AF78600D
:100C400039600023FB737A684C4B9A4210D07A6863
:100C50004B4B9A420CD07A684A4B9A4208D07A6839
:100C6000494B9A4204D049484FF44B7100F0F0FFD1
:100C70003B68DB78002B10D03B68DB78012B0CD075
:100C80003B68DB78022B08D03B68DB78032B04D071
:100C90003E4840F22D3100F0DBFF3B689B78002B93
:100CA00008D03B689B78012B04D0384840F22E31A5
:100CB00000F0CEFF3B681B78002B08D03B681B7808
:100CC000012B04D0314840F22F3100F0C1FF3B68C6
:100CD0005B78002B08D03B685B78012B04D02B4855
:100CE0004FF44C7100F0B4FFFB7B43F00103FB7346
:100CF0003B68DB78012B04D0022B07D0002B0FD0F0
:100D000009E0FB7B43F04003FB730AE0FB7B63F0ED
:100D10007F03FB7305E0FB7B63F03F03FB7300E0A5
:100D200000BF3B685B78012B03D1FB7B43F00403DE
:100D3000FB733B681B78012B03D1FB7B43F0020361
:100D4000FB733B689B78012B03D1FB7B43F00803CB
:100D5000FB737A680A4B9A4206D1FB7B23F030037F
:100D6000DAB27B681A7205E0FB7B23F03003DAB25B
:100D70007B681A721037BD4680BD00BF00C00040BE
:100D8000000001400080094000C009407C320000A2
:100D900080B483B000AF78607B6800229A707B6873
:100DA0000022DA707B6801221A707B6801225A7077
:100DB0000C37BD465DF8047B704700BF80B582B03C
:100DC00000AF78600B46FB707A68294B9A4210D0CE
:100DD0007A68284B9A420CD07A68274B9A4208D0FE
:100DE0007A68264B9A4204D0254840F2DF3100F061
:100DF0002FFFFB78002B07D0FB78012B04D0204875
:100E00004FF4787100F024FFFB78012B19D17A6838
:100E1000184B9A420AD17B6893F83030DBB263F00A
:100E20007F03DAB27B6883F830201DE07B6893F89B
:100E30003030DBB263F07F03DAB27B6883F83020B6
:100E400012E07A680B4B9A4207D17B6893F83030F6
:100E50007B68002283F8302006E07B6893F830300E
:100E60007B68002283F830200837BD4680BD00BF74
:100E700000C00040000001400080094000C009405F
:100E80007C32000080B483B000AF0346FB71084B96
:100E900097F907205209F97901F01F01012000FAA2
:100EA00001F143F822100C37BD465DF8047B704712
:100EB00000E100E080B500AF00F062F800F034F926
:100EC00000F072F82C4B1B882C4801211A46002395
:100ED00001F0AAF9284B5B88284802211A46002312
:100EE00001F0A2F9244B9B88244803211A460023D1
:100EF00001F09AF9204BDB88204804211A46002390
:100F000001F092F91C4B1B891C4805211A4600234D
:100F100001F08AF90020002101F076FD164B1B88B4
:100F2000184600F0DBF90620002101F06DFD124BA0
:100F30005B88184600F0D2F90C20002101F064FD16
:100F40000D4B9B88184600F0C9F91220002101F0D2
:100F50005BFD094BDB88184600F0C0F91820002122
:100F600001F052FD044B1B89184600F0B7F93C20F4
:100F700000F064FAA6E700BF4C04001000800140B6
:100F800080B500AF01F080FB00200621082201F0AF
:100F90007FFC0020002101F029FE01F0EDFD04207E
:100FA00001F06AFE80BD00BF80B582B000AF5A4B31
:100FB00001221A70584B01225A6058480021564AA3
:100FC00000F02EFF564B01229A70554B00221A71E9
:100FD000534B0022DA70524B02221A700023FB712D
:100FE00008E04F4BFA795A704D4800F0F1FEFB795A
:100FF0000133FB71FB79042BF3D94848002144F6F7
:101000002062002301F010F9464B00225A70454B34
:1010100000221A70434B0122DA70424B00229A7070
:101020003E48404901F032F83C480521002201F0D9
:1010300073F93A480421002201F06EF93748032180
:10104000002201F069F935480221002201F064F91B
:101050003248052140F2DC52002301F0E5F82F4828
:10106000042140F2DC52002301F0DEF82B4803217A
:1010700040F2DC52002301F0D7F82848022140F268
:10108000DC52002301F0D0F82448012140F2DC5268
:10109000002301F0C9F8234B00225A70214BFA7942
:1010A0001A70204B0022DA701E4B00229A70002327
:1010B000FB7106E019481B4900F0E8FFFB7901339A
:1010C000FB71FB79052BF5D914480521012201F0AC
:1010D0007BF912480421012201F076F90F4803211F
:1010E000012201F071F90D480221012201F06CF991
:1010F0000A480121012201F067F9084800F0A6FF23
:101100000648012100F070FF0448012100F03CFF77
:101110000837BD4680BD00BF780400100080014044
:10112000800400108804001080B586B000AF002352
:101130003B6100233B750223BB741A4A07F1080385
:1011400092E8030083E8030000237B7407F1100397
:10115000184600F03DFE01237B7407F1100318468A
:1011600000F036FE07F108030F481946FFF72AFA88
:101170003B1D1846FFF70CFE0223FB713B1D0A487E
:101180001946FFF759FD084800210122FFF766FCC8
:101190000820FFF777FE04480121FFF70FFE1837FC
:1011A000BD4680BDE832000000C0094080B483B075
:1011B00000AF0346FB71444B1A78444B1A70424B04
:1011C0001B78042B76D801A252F823F0F11100000D
:1011D000011200001512000023120000E1110000AE
:1011E000FB79BB2B03D1394B00221A7063E062E01C
:1011F000FB79FF2B03D1354B01221A705BE05AE0DB
:10120000FB79AA2B02D1314B03221A70304B0022FA
:101210001A7050E02D4B03221A702D4B00221A70C9
:1012200049E02B4B1B780A2B3AD92A4B1B781B021F
:101230009AB2284B5B7813439BB29AB2264B1A8022
:10124000244B9B781B029AB2224BDB7813439BB250
:101250009AB2214B5A801F4B1B791B029AB21D4B2D
:101260005B7913439BB29AB21B4B9A80194B9B79C3
:101270001B029AB2174BDB7913439BB29AB2164BFF
:10128000DA80144B1B7A1B029AB2124B5B7A13431F
:101290009BB29AB2104B1A810C4B04221A700AE0CE
:1012A0000B4B1B785A1CD1B2094A1170094AF979C3
:1012B000D15400E000BF054B1A78034B1A700C376D
:1012C000BD465DF8047B70470800001074040010F0
:1012D00040040010580400104C04001080B584B085
:1012E00000AF0346FB80FA88454BA3FB0213D908E5
:1012F0000B469B000B445B00D31A9BB2FB73FA882E
:101300003F4BA3FB0213DB089AB23D4BA3FB021336
:10131000D9080B469B000B445B00D31A9BB2BB73EE
:10132000FA88384BA3FB02135B099AB2344BA3FB38
:101330000213D9080B469B000B445B00D31A9BB2E7
:101340007B73FA88304BA3FB02139B099AB22C4B98
:10135000A3FB0213D9080B469B000B445B00D31A76
:101360009BB23B73FA88294BA3FB02135B0B9AB227
:10137000234BA3FB0213D9080B469B000B445B00D5
:10138000D31A9BB2FB72FB7A3033DBB2184600F003
:1013900043F83B7B3033DBB2184600F03DF87B7BF3
:1013A0003033DBB2184600F037F8BB7B3033DBB2AA
:1013B000184600F031F8FB7B3033DBB2184600F002
:1013C0002BF8FB7A1248194600F0B6FB3B7B10481D
:1013D000194600F0B1FB7B7B0D48194600F0ACFBD1
:1013E000BB7B0B48194600F0A7FBFB7B084819465E
:1013F00000F0A2FB074800F09FFB1037BD4680BD00
:10140000CDCCCCCC1F85EB51D34D62105917B7D141
:10141000F0320000F432000080B582B000AF034625
:10142000FB71FB1D0448194601220123FFF7A2FAB4
:101430000837BD4680BD00BF00C0004080B483B007
:1014400000AF78604FF0402302225A604FF04023F3
:101450000022DA604FF040237A6846F2A71101FBC0
:1014600002F29A614FF04023FF221A604FF04023AE
:1014700004225A614FF0402301225A6000BF4FF00E
:1014800040235B6803F00103002BF8D10C37BD4605
:101490005DF8047B704700BF80B584B000AF274B78
:1014A00000221A602648FFF79BFBB8603EE0BB684D
:1014B00003F00E03042B02D00C2B1ED032E00023CD
:1014C000FB7316E01F4B01221A701D48FFF720FA2C
:1014D0000346FB71194B1B68591C184A11601A4AC4
:1014E000F979D154FB791846FFF760FEFB7B013395
:1014F000FB73FB7B072BE5D914E0124B01221A701A
:101500000F48FFF705FA0346FB710C4B1B68591C8B
:101510000A4A11600C4AF979D154FB791846FFF751
:1015200045FE00BF0648FFF75BFBB860BB6803F0F1
:101530000103002BBBD01037BD4680BD4404001012
:1015400000C00940480400106404001080B582B057
:1015500000AF0346FB71FB79184601F0CFFA08375C
:10156000BD4680BD80B483B000AF78600B46FB7091
:101570007B68FA781A70012318460C37BD465DF86F
:10158000047B704780B485B000AF78603960002379
:10159000FB600AE07B685A1C7A603A68511C39602B
:1015A00012781A70FB680133FB603B681B78002BD4
:1015B000F0D1FB6818461437BD465DF8047B7047D0
:1015C00080B586B000AFF8607A603B600B46FB7276
:1015D00000237B617B68013B7B603B68092B10D952
:1015E0003A681E4BA3FB0213DB08FA7AF86811462F
:1015F0007A68FFF7E5FF78617B69FA681344FB605E
:1016000011E00DE0FB7AF8681946FFF7ABFFFB68C5
:101610000133FB607B6901337B617B68013B7B604D
:101620007B68002BEEDC39680C4BA3FB0123DA0846
:1016300013469B0013445B00CA1AD3B23033DBB2AB
:10164000F8681946FFF78EFF03467A6913447B61F9
:101650007B6918461837BD4680BD00BFCDCCCCCCC9
:1016600080B586B000AFF8607A603B600B46FB72D5
:1016700000237B613B68002B03DA3B685B423B61E4
:1016800001E03B683B617B68013B7B603B69092B68
:1016900021D93B68002B0DDA3A692F4BA3FB0213CB
:1016A000DB085B42FA7AF86811467A68FFF7D8FFE0
:1016B00078610BE03A69284BA3FB0213DB08FA7A46
:1016C000F86811467A68FFF7CBFF78617B69FA68A2
:1016D0001344FB6026E03B68002B03DA7B68013B88
:1016E0007B600EE00DE0FB7AF8681946FFF73AFFE1
:1016F000FB680133FB607B6901337B617B68013BE5
:101700007B607B68002BEEDC3B68002B0ADAF86814
:101710002D21FFF727FF03467A6913447B61FB689D
:101720000133FB6039690C4BA3FB0123DA08134634
:101730009B0013445B00CA1AD3B23033DBB2F868A3
:101740001946FFF70FFF03467A6913447B617B69F3
:1017500018461837BD4680BDCDCCCCCC80B588B0FE
:1017600002AFF8607A600A46FA72BB7200237B61AE
:101770007B68013B7B603B6A1B09002B12D03B6AF4
:101780001909FA7ABB7A0091F86811467A68FFF76E
:10179000E5FF03467A6913447B617B69FA68134469
:1017A000FB6011E00DE0FB7AF8681946FFF7DAFEFE
:1017B000FB680133FB607B6901337B617B68013B24
:1017C0007B607B68002BEEDC3B6A03F00F03092B88
:1017D0000BD83B6ADBB203F00F03DBB23033DBB272
:1017E000F8681946FFF7BEFE19E0BB7A002B0BD054
:1017F0003B6ADBB203F00F03DBB23733DBB2F868CE
:101800001946FFF7AFFE0AE03B6ADBB203F00F03B5
:10181000DBB25733DBB2F8681946FFF7A3FE7B69EA
:1018200001337B617B6918461837BD4680BD00BF18
:1018300080B58AB002AFF860B9607A603B6000237F
:10184000BB6100237B61FB68002B03D0FB68002297
:101850001A70F8E0F7E07B681B78252B0BD0FB684B
:101860005A1CFA607A68511C796012781A707B6988
:1018700001337B61E7E07B6801331B78252B0BD1BB
:10188000FB685A1CFA6025221A707B6802337B6061
:101890007B6901337B61D6E02023FB770023BB7794
:1018A0007B6801337B607B681B78302B05D130234C
:1018B000FB777B6801337B600FE00EE0BB7F1A464D
:1018C000920013445B00DAB27B681B781344DBB2EE
:1018D000303BBB777B6801337B607B681B782F2BA9
:1018E00003D97B681B78392BE8D9BA7F7B6913440D
:1018F0001A46BB689A4205D9BB68DAB27B69DBB28B
:10190000D31ABB777B681B78583B202B00F28D8065
:1019100001A252F823F000BFE51900002B1A0000C5
:101920002B1A00002B1A00002B1A00002B1A0000A3
:101930002B1A00002B1A00002B1A00002B1A000093
:101940002B1A0000151A00009D1900002B1A000028
:101950002B1A00002B1A00002B1A00009D19000002
:101960002B1A00002B1A00002B1A00002B1A000063
:101970002B1A00002B1A00002B1A00002B1A000053
:101980002B1A0000011A00002B1A0000B3190000E6
:101990002B1A00002B1A0000C9190000BA7F3B68FF
:1019A000191D39601B68F97FF868FFF759FEB861A7
:1019B0003EE0BA7F3B68191D39601B68F97FF86803
:1019C000FFF7FEFDB86133E0BA7F3B68191D39604F
:1019D0001968FB7F0091F86819460023FFF7BEFEE7
:1019E000B86125E0BA7F3B68191D39601968FB7F33
:1019F0000091F86819460123FFF7B0FEB86117E0BF
:101A00003B681A1D3A601B68F8681946FFF7BAFD73
:101A1000B8610DE03B681A1D3A601B68DBB2F868DC
:101A20001946FFF79FFDB86102E04FF0FF3325E054
:101A30007B6801337B60BB69FA681344FB607A6999
:101A4000BB6913447B617B681B78002B04D07A69E7
:101A5000BB689A42FFF4FFAE7A69BB689A4203D230
:101A6000FB6800221A7008E0FB68013BFB60FB6822
:101A700000221A707B69013B7B617B691846203725
:101A8000BD4680BD80B584B000AFF860B9607A60B3
:101A9000F8686421BA687B68FFF7CAFE03461846F7
:101AA0001037BD4680BD00BFB0B5A6B000AFF8602E
:101AB000B9607A60144B07F110041D460FCD0FC4B6
:101AC0000FCD0FC42B68236007F134031846B968A3
:101AD0007A68FFF7D7FF0346632B09DD0B4B1B68C2
:101AE000DB6807F110021046194600F059F8FEE7CE
:101AF00007F134031846F96800F052F80346184617
:101B00009837BD46B0BD00BFF83200003804001061
:101B100080B582B000AF78603960064B1B689B6867
:101B2000184679683A68FFF7BFFF0346184608373A
:101B3000BD4680BD380400100FB480B582B000AF40
:101B400007F114033B6038693968FFF7E1FF7860FB
:101B50007B6818460837BD46BDE8804004B0704732
:101B600080B582B000AF786039600C4B1B689A6812
:101B70003B689A4205D0094B1B68DA683B689A4279
:101B800006D17B68DBB21846FFF7E0FC7B6801E01A
:101B90004FF0FF3318460837BD4680BD38040010AB
:101BA00080B584B000AF786039600023FB6012E03C
:101BB0007B681B7818463968FFF7D2FF0346B3F1FC
:101BC000FF3F02D14FF0FF330AE0FB680133FB60B7
:101BD0007B6801337B607B681B78002BE8D1FB6856
:101BE00018461037BD4680BD80B582B000AF114B9E
:101BF0007B60114B3B6007E03B681A1D3A607A68D6
:101C0000111D796012681A603A680C4B9A42F3D33E
:101C10000B480C494FF000028842B8BF40F8042B33
:101C2000FFF6FAAFFEF71CFBFFF744F90837BD4695
:101C300080BD00BF8C330000000000104004001085
:101C4000400400109C04001080B400AFFEE700BF09
:101C500080B483B000AF78603960FEE780B487B0AD
:101C600000AF13460246FA710A46BA717B71BB791E
:101C70007B61FB795B003B61184BFB607B690F2B41
:101C800005D97B69103B7B613B6901333B613B6953
:101C90009B00FA6813443A699200F9680A44116893
:101CA0007A695200032000FA02F2D2430A401A6015
:101CB0003B699B00FA6813443A699200F9680A4448
:101CC000116878797A69520000FA02F20A431A60C0
:101CD0001C37BD465DF8047B704700BF00C0024062
:101CE00080B487B000AF13460246FA710A46BA7153
:101CF0007B71BB797B61FB795B003B61184BFB60BF
:101D00007B690F2B05D97B69103B7B613B690133F4
:101D10003B613B699B00FA6813443A699200F96899
:101D20000A4411687A695200032000FA02F2D24391
:101D30000A401A603B699B00FA6813443A699200B2
:101D4000F9680A44116878797A69520000FA02F257
:101D50000A431A601C37BD465DF8047B704700BF1C
:101D600040C0024080B485B000AF13460246FA710D
:101D70000A46BA717B71154BFB607B79012B0FD141
:101D8000FB799B00FA681344FA799200F9680A44D7
:101D90001168BA79012000FA02F20A431A600FE0D2
:101DA000FB799B00FA681344FA799200F9680A44B7
:101DB0001168BA79012000FA02F2D2430A401A608F
:101DC0001437BD465DF8047B704700BF68C0024011
:101DD00080B582B000AF78607B6819787B685A78EC
:101DE0007B689B78084611461A46FFF737FF7B68E9
:101DF00019787B685A787B68DB78084611461A4662
:101E0000FFF76EFF7B6819787B685A787B681B79CF
:101E1000084611461A46FFF7A5FF0837BD4680BDA4
:101E200080B588B000AFF860B9607A60FA68534B4B
:101E30009A4203D052489C21FFF70AFFBB68002B4F
:101E400006D0BB68012B03D04D489D21FFF700FF52
:101E50007B68FB617B68BB6140200121FEF7D4F900
:101E60000C200021FEF732F90C20FEF79BF9034607
:101E70001A464FF00003C7E90423FB683F221A60AB
:101E8000FB6800225A60FB6800221A67FB68002288
:101E90005A61FB6800229A62FB680022DA64FB68E0
:101EA00000221A65BB68002B36D1FB691B78002B1A
:101EB00007D0FB691B78012B03D03148B421FFF711
:101EC000C7FEFB691B78002B05D1FB695B685A1EB6
:101ED000FB68DA604EE0FB695B681A464FF000036E
:101EE000396903FB01F0796902FB01F101443869AA
:101EF000A0FB022319440B4610461946214A4FF015
:101F0000000300F0DBFE02460B46C7E904233B69F1
:101F10005A1EFB68DA602DE0BB68012B2AD1BB6931
:101F20005B78002B07D0BB695B78012B03D014488A
:101F3000C521FFF78DFEBB691B78012B0BD0BB6958
:101F40001B78022B07D0BB691B78032B03D00C48EE
:101F5000C621FFF77DFEFB681A6FBB691B7803F093
:101F60000301BB695B7803F003039B000B431A4337
:101F7000FB681A672037BD4680BD00BF0080014066
:101F80001C33000040420F0080B582B000AF786083
:101F90000B46FB707A68124B9A4203D01148E82135
:101FA000FFF756FEFB78002B06D0FB78012B03D001
:101FB0000C48E921FFF74CFEFB78012B06D17B682A
:101FC0005B6843F008027B685A6005E07B685B68E9
:101FD00003F003027B685A600837BD4680BD00BF2E
:101FE000008001401C33000080B582B000AF7860F3
:101FF0000B46FB707A68134B9A4204D012484FF498
:102000008071FFF725FEFB78002B07D0FB78012BB2
:1020100004D00D4840F20111FFF71AFEFB78012BA6
:1020200006D17B685B6843F001027B685A6005E07B
:102030007B685B6803F00A027B685A600837BD461C
:1020400080BD00BF008001401C33000080B582B01D
:1020500000AF78607A680B4B9A4204D00A484FF47C
:102060008A71FFF7F5FD7B685B6843F002027B68CD
:102070005A607B685B6803F009027B685A60083726
:10208000BD4680BD008001401C33000080B582B099
:1020900000AF786039607A68614B9A4204D0614839
:1020A0004FF49271FFF7D4FD3B681B78062B04D9DF
:1020B0005C4840F22511FFF7CBFD3B685B78002BB5
:1020C00008D03B685B78012B04D056484FF49371DD
:1020D000FFF7BEFD3B68DB78002B08D03B68DB7860
:1020E000012B04D04F4840F22711FFF7B1FD3B68A8
:1020F0009B78002B08D03B689B78012B04D0494883
:102100004FF49471FFF7A4FD3B685B78012B12D16B
:102110007B685A693B681B7803F0070359003B68EA
:102120001B7803F007030B44012101FA03F31A4360
:102130007B685A6114E07B685A693B681B7803F03E
:10214000070359003B681B7803F007030B44012188
:1021500001FA03F3DB431340C3F314027B685A61B3
:102160003B68DB78012B13D17B685A693B681B788D
:1021700003F0070359003B681B7803F007030B4487
:102180000133012101FA03F31A437B685A6115E018
:102190007B685A693B681B7803F0070359003B686A
:1021A0001B7803F007030B440133012101FA03F309
:1021B000DB431340C3F314027B685A613B689B788E
:1021C000012B13D17B685A693B681B7803F0070326
:1021D00059003B681B7803F007030B4402330121CD
:1021E00001FA03F31A437B685A6115E07B685A6968
:1021F0003B681B7803F0070359003B681B7803F02A
:1022000007030B440233012101FA03F3DB431340BC
:10221000C3F314027B685A610837BD4680BD00BF16
:10222000008001401C33000080B584B000AFF8602E
:102230007A600A46FA72BB72FA68354B9A4204D049
:1022400034484FF4D371FFF703FDFB7A062B04D912
:10225000304840F2A711FFF7FBFCBB7A002B07D0F8
:10226000BB7A012B04D02B484FF4D471FFF7F0FC5C
:10227000FB7A062B2CD801A252F823F099220000F9
:10228000A1220000A9220000B1220000B922000012
:10229000C1220000C9220000FB687A689A6117E039
:1022A000FB687A68DA6113E0FB687A681A620FE00B
:1022B000FB687A685A620BE0FB687A681A6407E088
:1022C000FB687A685A6403E0FB687A689A6400BF26
:1022D000FB681A6DFB7A062B04D8FB7A012101FA00
:1022E00003F300E000231A43FB681A65BB7A002B56
:1022F0000BD1FB685B6843F00202FB685A60FB6825
:102300005B6803F00902FB685A601037BD4680BD68
:10231000008001401C33000080B582B000AF7860BF
:1023200013460A46FA70BB707A68254B9A4204D06D
:10233000244840F2E111FFF78BFCFB78012B02D916
:10234000FB78062B04D91F484FF4F171FFF780FC8E
:10235000BB78002B07D0BB78012B04D0194840F282
:10236000E311FFF775FCBB78002B15D17B68DA6CA5
:10237000FB7803F00703012B08DDFB78012101FA4C
:1023800003F3D94347F67C630B4001E047F67C63D7
:102390001A407B68DA640FE07B68DA6CFB7803F044
:1023A0000703012B04DDFB78012101FA03F300E0B0
:1023B00000231A437B68DA640837BD4680BD00BF3E
:1023C000008001401C33000080B582B000AF78600F
:1023D00013460A46FA70BB707A68204B9A4204D0C2
:1023E0001F484FF4FF71FFF733FCFB78002B02D03E
:1023F000FB78062B04D91A4840F2FF11FFF728FC9E
:10240000BB78012B11D17B68DA6CFB7803F00703F2
:10241000002B05DDFB780833012101FA03F300E00E
:1024200000231A437B68DA6415E07B68DA6CFB787A
:1024300003F00703002B09DDFB780833012101FAC3
:1024400003F3D94347F67C630B4001E047F67C6316
:102450001A407B68DA640837BD4680BD00800140C1
:102460001C33000080B483B000AF0346FB71FB79DE
:1024700003F00103002B03D0344B01229A6102E0E8
:10248000324B0122DA61FB7903F00203002B03D007
:102490002E4B02229A6102E02C4B0222DA61FB7978
:1024A00003F00403002B03D0284B10229A6102E0B2
:1024B000264B1022DA61FB7903F00803002B04D0CD
:1024C000224B4FF480729A6103E0204B4FF48072EC
:1024D000DA61FB7903F01003002B04D01B4B4FF49F
:1024E00000729A6103E0194B4FF40072DA61FB79D4
:1024F00003F02003002B04D0144B4FF480629A6148
:1025000003E0124B4FF48062DA61FB7903F0400381
:10251000002B04D00D4B4FF480429A6103E00B4B2B
:102520004FF48042DA61FB795BB2002B04DA074B8F
:102530004FF400429A6103E0044B4FF40042DA6129
:102540000C37BD465DF8047B704700BF20C00920F2
:1025500080B483B000AF0346FB71FB7903F0010345
:10256000002B06D0474B474A126842F001021A601E
:1025700005E0444B434A126822F001021A60FB79DD
:1025800003F00203002B06D03E4B3E4A126842F095
:1025900002021A6005E03B4B3A4A126822F002023E
:1025A0001A60FB7903F00403002B06D0354B354A43
:1025B000126842F010021A6005E0324B314A12688C
:1025C00022F010021A60FB7903F00803002B06D0FA
:1025D0002C4B2C4A126842F480721A6005E0294B99
:1025E000284A126822F480721A60FB7903F0100303
:1025F000002B06D0234B234A126842F400721A6063
:1026000005E0204B1F4A126822F400721A60FB7921
:1026100003F02003002B06D01A4B1A4A126842F42A
:1026200080621A6005E0174B164A126822F4806235
:102630001A60FB7903F04003002B06D0114B114ABE
:10264000126842F480421A6005E00E4B0D4A12688F
:1026500022F480421A60FB795BB2002B06DA094B48
:10266000084A126842F400421A6005E0054B054A28
:10267000126822F400421A600C37BD465DF8047BF4
:10268000704700BF20C0092080B500AF0D4B0D4A38
:10269000126842F480321A600A4B0A4A126842F405
:1026A00000321A60074B074A126842F480221A600F
:1026B000044B044AD26942F48022DA610020FFF719
:1026C00047FF80BD20C0092080B582B000AF024620
:1026D0000B46FA71BB7100F073F8FB79012B06D140
:1026E0002C4B2C4A926942F480329A6105E0294BC6
:1026F000284AD26942F48032DA61264B254AD269EF
:1027000042F40032DA61FF20FFF722FFBB7918465E
:10271000FFF7A8FE1F4B1F4A926942F480229A617C
:102720001C4B1C4A926942F480229A61194B194A47
:10273000926942F480229A61164B164A926942F4D9
:1027400080229A61134B134A926942F480229A6163
:10275000104B104A926942F480229A610D4B0D4A47
:10276000926942F480229A610A4B0A4A926942F4C1
:1027700080229A61074B074A926942F480229A614B
:10278000044B044AD26942F48022DA610837BD461C
:1027900080BD00BF20C0092080B582B000AF0246D6
:1027A0000B46FA71BB71FB7901201946FFF78CFFCC
:1027B000BB7900201946FFF787FF0837BD4680BD6B
:1027C00080B582B000AF314B304AD26942F48022EA
:1027D000DA612E4B2D4A926942F400329A612B4BFA
:1027E0002A4A926942F480329A610020FFF7B0FED3
:1027F0000020FFF7ADFE0020FFF7AAFE0020FFF744
:10280000A7FE224B214A926942F480229A611F4B13
:102810001E4A926942F480229A611C4B1B4A9269BB
:1028200042F480229A61194B184A926942F480223C
:102830009A61164B154A926942F480229A61134BB1
:10284000124A926942F480229A61104B0F4A9269AF
:1028500042F480229A6100237B600BE000233B60FE
:1028600002E03B6801333B603B68092BF9DD7B6884
:1028700001337B607B68632BF0DD044B034AD26934
:1028800042F48022DA610837BD4680BD20C00920AD
:1028900080B582B000AF13460246FA710A46BA719B
:1028A0007B714D4B10225A70FB79002B0ED0FB79B7
:1028B000012B0BD00823BB7101237B71464B5B7846
:1028C00043F00203DAB2444B5A7007E0BB79082B9D
:1028D00002D87B79102B01D9002378E0FB79002BFB
:1028E00004D10623BB7108237B7106E03A4B5B7869
:1028F00043F00103DAB2384B5A70374BFA791A7049
:10290000354BBA791A71344B7A795A71324BBA799C
:102910009A71314B7A79DA712F4BC0229A702E4B13
:102920002022DA702C4B00229A81BB79C02292FBC4
:10293000F3F3DAB2284B1A727B79202292FBF3F37D
:10294000DAB2254B5A72244B1A7A234B9A72224BD5
:102950005A7A214BDA72BA79C02393FBF2F102FB67
:1029600001F29B1A002B05D01B4B9B7A0133DAB284
:10297000194B9A72184B9B7A03F00103002B05D078
:10298000154B9B7A0133DAB2134B9A72124B5B7878
:1029900000201946FFF700FF7B79013BDBB21B01EA
:1029A000DAB2BB791344DBB2013BDBB2012019463A
:1029B000FFF7F2FE084B9B7A013BDBB2022019467F
:1029C000FFF7EAFE03201F21FFF7E6FE012318466A
:1029D0000837BD4680BD00BF8C04001080B500AF35
:1029E000084B9B89DBB208201946FFF7D5FE054B43
:1029F0009B891B0A9BB2DBB209201946FFF7CCFE6C
:102A000080BD00BF8C04001080B584B000AF0246CA
:102A10000B46FA71BB71134BFA799A73114BBA7961
:102A2000DA73104B9A89BB799BB20E49897A01FB04
:102A300003F39BB213449AB2FB799BB21344FB811C
:102A4000FB89DBB20A201946FFF7A6FEFB891B0AA9
:102A50009BB2DBB20B201946FFF79EFE1037BD4636
:102A600080BD00BF8C04001080B582B000AF224B47
:102A70009B7BBB71204BDB7B0133DAB21E4BDA73DD
:102A80001D4BDB7B00201946FFF7BEFF1A4B9B7ADC
:102A90007B7101200C21FFF717FE0023FB7106E07C
:102AA00000202021FFF710FEFB790133FB71FA793A
:102AB0007B799A42F4D3104BDB7BBA7910461946E6
:102AC000FFF7A2FF0C4BDA7B0B4B5B7A9A420FD1DC
:102AD000094BDB7B013BDAB2074BDA73064B9A8971
:102AE000054B9B7A13449AB2034B9A81FFF776FF0A
:102AF0000837BD4680BD00BF8C04001080B582B091
:102B000000AF0346FB71FB790A2B02D1FFF7ACFF44
:102B10002BE0FB790D2B06D1164BDB7B00201946F1
:102B2000FFF772FF21E0134B1A7A124B9B7B9A42FC
:102B300004D1104B00229A73FFF796FF0D4B9A7B3E
:102B40000C4BDB7B10461946FFF75EFF01200C2182
:102B5000FFF7BAFDFB7900201946FFF7B5FD054BDD
:102B60009B7B0133DAB2034B9A7300231846083774
:102B7000BD4680BD8C04001080B582B000AF1A4BFA
:102B800000229A81FFF72AFF00200021FFF73CFF77
:102B9000154B5B7803F00203002B02D000237B71FE
:102BA00001E020237B71104B9B7A0F4AD27A02FB03
:102BB00003F37B8001200C21FFF786FD0023FB80BF
:102BC00007E07B7900201946FFF77EFDFB88013383
:102BD000FB80FA887B889A42F3D300200021FFF71C
:102BE00013FF0837BD4680BD8C04001080B582B04D
:102BF00000AF02460B46FA71BB711E4B5B7803F0C7
:102C00000203002B01D000232FE01A4BDB79BA79A5
:102C10009A4201D9002328E0BB79002B02D1154B41
:102C2000DB79BB71134B5B7823F00C03DAB2114BE9
:102C30005A70104B5B78DAB2FB799B00DBB203F081
:102C40000C03DBB21343DBB2DAB20A4B5A70BB7926
:102C5000013BDBB204201946FFF79EFD054B5B7874
:102C600000201946FFF798FD012318460837BD4696
:102C700080BD00BF8C04001080B582B000AF034659
:102C8000FB710D4B5B7823F02C03DAB20A4B5A70C0
:102C9000FB79042B06D1084B5B7843F02003DAB2B2
:102CA000054B5A70044B5B7800201946FFF774FD02
:102CB0000837BD4680BD00BF8C0400104BB942B937
:102CC000002908BF002802D04FF0FF31084600F06D
:102CD0003BB882B0EC462DE9005000F01DF8DDF85D
:102CE00004E002B00CBC70472DE9704F089E1446FA
:102CF0001D468046894600F029F804FB01F3A4FB39
:102D000000AB00FB05329344B8EB0A0869EB0B09F2
:102D1000C6E90089BDE8708F2DE9704F089E144602
:102D20001D468046894600F061F900FB05F5A0FBD1
:102D300004AB04FB0154A344B8EB0A0869EB0B098C
:102D4000C6E90089BDE8708F704700BF00292DE9F2
:102D5000F00FC0F2A1800024002BC0F2988015462D
:102D600006460F46002B3FD18A4258D9B2FA82F369
:102D70004BB1C3F1200201FA03F720FA02F29D40A1
:102D800000FA03F61743290CB7FBF1F201FB1277A7
:102D9000A8B200FB02F34FEA164C4CEA0747BB42CD
:102DA00009D97F1902F1FF3C80F00581BB4240F256
:102DB0000281023A2F44FF1AB7FBF1F301FB1371B2
:102DC00000FB03F0B6B246EA0141884208D949192E
:102DD00003F1FF3780F0F180884240F2EE80023B41
:102DE00043EA0242002303E08B420AD900231A4639
:102DF0001046194614B1404261EB4101BDE8F00FA5
:102E00007047B3FA83F8B8F1000F40F088808B4226
:102E100002D3824200F2E28000230122E8E712B9E5
:102E20000123B3FBF2F5B5FA85F2002A3AD17F1BF4
:102E3000280C1FFA85FC0123B7FBF0F100FB11778A
:102E40000CFB01F24FEA164848EA0747BA4207D995
:102E50007F1901F1FF3802D2BA4200F2C480414624
:102E6000BF1AB7FBF0F200FB12700CFB02FCB6B20B
:102E700046EA0040844507D9401902F1FF3702D2E3
:102E8000844500F2AE803A4642EA0142B0E7E443AC
:102E9000524263EB430362E7404261EB41014FF072
:102EA000FF3459E79540C2F1200927FA09F126FAC3
:102EB00009F99740280CB1FBF0F800FB18111FFA34
:102EC00085FC0CFB08F349EA07094FEA194747EA72
:102ED00001418B4206FA02F608D9491908F1FF327E
:102EE0007AD28B4278D9A8F102082944C91AB1FBD9
:102EF000F0F300FB13170CFB03F21FFA89F949EA00
:102F00000747BA4207D97F1903F1FF3160D2BA42AD
:102F10005ED9023B2F44BF1A43EA08438CE7C8F14D
:102F2000200225FA02F103FA08FC27FA02F320FA3C
:102F300002F207FA08F741EA0C0C4FEA1C49B3FB0E
:102F4000F9F109FB11331FFA8CFA0AFB01FB174355
:102F50003A0C42EA03439B4505FA08F008D913EB03
:102F60000C0301F1FF3235D29B4533D9023963445A
:102F7000CBEB0303B3FBF9F209FB12330AFB02FAB2
:102F8000BFB247EA0347BA4508D917EB0C0702F16D
:102F9000FF331BD2BA4519D9023A674442EA0145C8
:102FA000A5FB0001CAEB07078F424FF000030AD3CD
:102FB00005D02A461CE76246FDE63B4610E706FAC6
:102FC00008F68642F5D26A1E002311E71A46E5E7A5
:102FD0000B46A0E71146CBE7904687E743464246BB
:102FE00006E7023A50E702392F4439E72DE9F00F9E
:102FF000144605460E46002B43D18A4253D9B2FAF5
:1030000082F757B1C7F1200620FA06F601FA07F356
:1030100002FA07F400FA07F51E43210CB6FBF1F2A1
:1030200001FB1266A0B200FB02F32F0C47EA064632
:10303000B34209D9361902F1FF3780F0FD80B3425F
:1030400040F2FA80023A2644F61AB6FBF1F301FB8D
:10305000136100FB03F0ADB245EA0141884208D993
:10306000091903F1FF3680F0E980884240F2E680DA
:10307000023B43EA0242002310461946BDE8F00F26
:1030800070478B424CD8B3FA83F6002E4FD18B4257
:1030900002D3824200F2DD80BDE8F00F002301225E
:1030A00010461946704712B90124B4FBF2F4B4FA81
:1030B00084F2002A40F08280091B260CA7B201236B
:1030C000B1FBF6F006FB101107FB00F24FEA154CBE
:1030D0004CEA01418A4207D9091900F1FF3C02D2AA
:1030E0008A4200F2C8806046891AB1FBF6F206FBFC
:1030F000121107FB02F7ADB245EA0145AF4208D90C
:103100002C1902F1FF3180F09B80A74240F2988099
:10311000023A42EA004210461946BDE8F00F7047F5
:1031200000231A4610461946BDE8F00F7047C6F155
:10313000200522FA05F703FA06F421FA05F301FA4D
:1031400006FB20FA05F53C434FEA1448B3FBF8FCB4
:1031500008FB1C331FFA84F909FB0CFA45EA0B0B38
:103160004FEA1B4545EA03439A4502FA06F204D9A1
:103170001B190CF1FF356FD3AC46CAEB0303B3FB4D
:10318000F8F508FB153309FB05F91FFA8BFB4BEA31
:103190000347B94504D93F1905F1FF3362D31D46F2
:1031A00045EA0C4CACFB0223C9EB07079F424FF0EA
:1031B00000054AD346D062462B465DE79440C2F1F3
:1031C000200921FA09FC914020FA09F9260CBCFBE0
:1031D000F6F806FB18CCA7B207FB08F349EA010989
:1031E0004FEA194141EA0C4C634500FA02F509D94E
:1031F0001CEB040C08F1FF323BD2634539D9A8F12E
:103200000208A444C3EB0C0CBCFBF6F306FB13C191
:1032100007FB03F21FFA89F949EA01418A4207D9FB
:10322000091903F1FF3022D28A4220D9023B2144FE
:10323000891A43EA084343E73A4605E7334618E765
:103240000A4666E7B0409042B5D20CF1FF32002347
:1032500012E7334632460FE79A458DD9ACF1020C9E
:1032600023448AE7B9459AD9023D274498E70346A3
:10327000DEE79046C6E70238214435E7433A5C551D
:10328000736572735C4E69636F5C4465736B746FD6
:10329000705C576562736974655F536F66747761BC
:1032A00072655C526F626F742D48616E645C4D692B
:1032B00063726F636F6E74726F6C6C65725F48617E
:1032C0006E645C6C7063313778785F6C69625C73D4
:1032D0006F757263655C6C7063313778785F7561A8
:1032E00072742E6300000000004B00000003000019
:1032F000256900000A0D0000737464696F2E633A3B
:1033000020696E637265617365204D41585F535447
:1033100052494E475F53495A450A0D00433A5C559E
:10332000736572735C4E69636F5C4465736B746F35
:10333000705C576562736974655F536F667477611B
:1033400072655C526F626F742D48616E645C4D698A
:1033500063726F636F6E74726F6C6C65725F4861DD
:103360006E645C6C7063313778785F6C69625C7333
:103370006F757263655C6C7063313778785F7077F6
:043380006D2E63004B
:08338400C8F9FF7F0100000001
:10338C0000E1F505DC050000040000000000000071
:10339C000000000000000000010000000000000020
:1033AC000000000000000000000000000000000011
:1033BC000000000000000000000000000000000001
:1033CC0000000000000000000000000000000000F1
:1033DC0000000000000000000000000000000000E1
:1037BC0000000000000000001000001000000000DD
:00000001FF
